:020000040800F2
:1000000000080020BD1E00088105000883050008C7
:1000100000000000000000000000000000000000E0
:10002000000000000000000000000000850500083E
:100030000000000000000000870500088905000896
:100040003D1F00083D1F00083D1F00083D1F000820
:100050003D1F00083D1F00083D1F00083D1F000810
:10006000000000003D1F00083D1F00083D1F000864
:100070003D1F00083D1F0008000000003D1F000854
:100080000000000000000000000000000000000070
:100090003D1F000800000000000000003D1F000898
:1000A000000000003D1F00080000000000000000EC
:1000B0003D1F00083D1F0008000000000000000078
:1000C000002243088B4274D303098B425FD3030A97
:1000D0008B4244D3030B8B4228D3030C8B420DD3AA
:1000E000FF22090212BA030C8B4202D31212090238
:1000F00065D0030B8B4219D300E0090AC30B8B4276
:1001000001D3CB03C01A5241830B8B4201D38B0323
:10011000C01A5241430B8B4201D34B03C01A5241C8
:10012000030B8B4201D30B03C01A5241C30A8B420B
:1001300001D3CB02C01A5241830A8B4201D38B02F6
:10014000C01A5241430A8B4201D34B02C01A52419A
:10015000030A8B4201D30B02C01A5241CDD2C3090C
:100160008B4201D3CB01C01A524183098B4201D388
:100170008B01C01A524143098B4201D34B01C01A73
:10018000524103098B4201D30B01C01A5241C308EB
:100190008B4201D3CB00C01A524183088B4201D35A
:1001A0008B00C01A524143088B4201D34B00C01A46
:1001B0005241411A00D20146524110467047FFE7B2
:1001C00001B5002000F006F802BDC0460029F7D0B6
:1001D00076E770477047C046002B11D1002A0FD137
:1001E000002900D1002802D00021C943080007B42B
:1001F000024802A14018029003BDC046D9FFFFFF8C
:1002000003B4684601B5029801F0F4FE019B9E46D6
:1002100002B00CBC7047C04610B5002903D100F0F5
:1002200007F8203002E0080000F002F810BDC046D8
:100230001C2101231B04984201D3000C10391B0A16
:10024000984201D3000A08391B09984201D30009DA
:10025000043902A2105C40187047C0460403020231
:1002600001010101000000000000000010B5064C73
:100270002378002B07D1054B002B02D0044800E067
:1002800000BF0123237010BD0C00002000000000FF
:100290008C210008044B10B5002B03D003490448FF
:1002A00000E000BF10BDC0460000000010000020AC
:1002B0008C21000800B583B008220021684601F0B7
:1002C0003EFE1A481A4B03600023C3638022D20506
:1002D00042608360836301220261C3601F328354E2
:1002E000013283548362C222FF324262963AFF3A5D
:1002F0008354283A4261036383614363C36100F01E
:1003000061FA00280CD10B4B009380235B01019311
:100310000648694600F04CFB002804D103B000BD3C
:1003200000F05AF8EFE700F057F8F7E72800002050
:10033000002401400200000410B586B0040014221D
:10034000002101A801F0FBFD22680E4B9A4201D06A
:1003500006B010BD0C4B596B802292000A435A63C1
:10036000D96A01221143D962DB6A1A400092009BCC
:100370000223019301330293A02001A9C00500F0DC
:10038000C9FBE5E7002401400010024070B586B0CB
:100390001422002101A801F0D2FD0E4BDA6A0124DB
:1003A0002243DA62DB6A23400093009B8C267600AE
:1003B000A025ED0500223100280000F063FC019625
:1003C000029400230393049301A9280000F0A2FBE8
:1003D00006B070BD0010024072B6FEE700B599B0DD
:1003E000342200210BA801F0AAFD1422002106A846
:1003F00001F0A5FD18220021684601F0A0FD1D496D
:100400000A681D4B1A4080231B0113430B60022313
:100410000B9301220E920F320F9214930023159327
:100420008023DB0216938023DB0317930BA800F0D5
:1004300087FC002818D10F2306930C3B0793002359
:10044000089309930A93012106A800F007FF0028EA
:100450000CD10223009300230293684601F010F8A8
:10046000002805D119B000BDFFF7B6FFFFF7B4FFB4
:10047000FFF7B2FF00700040FFE7FFFF70B500F02C
:1004800051F9FFF7ABFFFFF781FF00F0CDF8FFF761
:1004900011FF00F019F800F07DF880267600A02505
:1004A000ED0501223100280000F0ECFBFA24A40045
:1004B000200000F05DF900223100280000F0E2FB8E
:1004C000200000F055F9E8E710B50E480E4B036028
:1004D00082235B00436000238360C3600361436148
:1004E000802292008261C3610362436283620733A8
:1004F000C36201F095F8002800D110BDFFF76CFF32
:10050000FBE7C046840000200030014010B586B0F3
:1005100004001422002101A801F011FD22680F4BF4
:100520009A4201D006B010BD0D4B596B802252018A
:100530000A435A63D96A01221143D962DB6A1A401D
:100540000092009BA02301939E3B029301330493EE
:10055000A02001A9C00500F0DDFAE3E7003001406A
:1005600000100240054B5A6B01210A435A63996BF4
:10057000802252050A439A637047C0460010024029
:10058000FEE7FEE77047704710B500F0DFF810BDDA
:100590007047000000B587B01022002102A801F0CA
:1005A000CEFC08220021684601F0C9FC16488023D1
:1005B000DB0503607C23436000238360FF22C2606D
:1005C0000361436101F0EEF8002813D180235B0141
:1005D00002930D4802A901F009F900280DD100236A
:1005E000009301930848694601F084F9002807D177
:1005F00007B000BDFFF7F0FEE8E7FFF7EDFEEEE71E
:10060000FFF7EAFEF4E7C046DC0000200268802322
:10061000DB059A4200D07047024A936B01210B43DD
:100620009363F8E70010024010B50C480C4B0360D0
:10063000E1235B02436000238360C36003610C22FB
:1006400042618361C3610362436201F001FC0028DF
:1006500000D110BDFFF7C0FEFBE7C0461C01002023
:100660000044004070B586B004001422002101A8A7
:1006700001F065FC2268154B9A4201D006B070BDAE
:10068000134B996B802292020A439A63D96A012222
:100690001143D962DB6A13400093009B019202264A
:1006A000029603250495A024E40501A9200000F08A
:1006B00031FA0423019302960022039204950593D4
:1006C00001A9200000F026FAD8E7C0460044004007
:1006D0000010024010B504000F4B1978FA2080007A
:1006E000FFF7EEFC01000D4B1868FFF7E9FC00F086
:1006F0000DFA00280DD1032C01D901200AE00130A8
:1007000000222100404200F0FDF9054B1C60002052
:1007100000E0012010BDC0460400002000000020C1
:100720000800002010B5084A136840210B431360ED
:100730000120FFF7CFFF041E02D00124200010BDCE
:10074000FFF710FFFAE7C04600200240034A116895
:10075000034B1B785B1813607047C046A401002050
:1007600004000020014B18687047C046A401002017
:1007700070B50400FFF7F6FF0500631C02D0044BC0
:100780001B78E418FFF7EEFF401BA042FAD370BDC0
:100790000400002010B582B00400084B1868084916
:1007A000FFF78EFC4443019402E0019B013B01935F
:1007B000019B002BF9D102B010BDC0460000002003
:1007C00040420F0070B5041E00D1E2E0436D002BE3
:1007D00030D0636DDB0633D423689A6804210D00A2
:1007E000154011422CD1626D6B490A400631FF3130
:1007F0000A436265996803220A40012A29D0626887
:10080000C02109068A4228D08021C9058A4224D005
:10081000802109068A4220D01A69920092081A6142
:100820005E4B1A685E490A401A601A6861680A439A
:100830001A601BE0836550228354FFF77DFDC8E7F3
:10084000636D10221343636550230022E25401209C
:1008500070BD1A68D20713D4D1E71A6992009208C2
:100860001A612268136961680B4313612268D368B7
:1008700018218B43D3602268D368A1680B43D360EF
:10088000464B1A6847490A401A601A68616B490664
:100890000A431A6023689A68D20004D499688022B7
:1008A00052050A439A602268D3683F490B40D360DF
:1008B0002068C268E368216902292DD02B432021DA
:1008C000615C49030B432C21615C49000B43216BA4
:1008D0000B43A16989030B43E169C9030B4313432C
:1008E000C360636AC222FF32934205D02168CA689E
:1008F000A06A03431343CB602123E35C012B0DD09B
:10090000E36B012B1ED022681369DB072DD5136919
:1009100001218B43136128E00425CFE71F33E35CFB
:10092000002B06D12268D16880235B020B43D36081
:10093000E6E7636D202213436365A36D1F3A1343FB
:10094000A365DDE72268136918490B40136121682C
:100950000A69236C606C0343A06C034313430B616F
:100960002268136901210B4313612268536907212F
:100970008B43536122685369A16B0B43536100237E
:10098000A365636D03229343023A1343636500201A
:100990005EE701205CE7C046FDFEFFFF082701403F
:1009A000FFFFC3FFFFFFFFFD1902FEFF03FCFFFF78
:1009B00070B504000D005023C35C012B4BD05023B5
:1009C0000122C25403689A6852071AD44968234A1C
:1009D000914229D0996A2A685203520B0A439A62BB
:1009E0002B685B0316D42B689B0305D51C4A116842
:1009F0008023DB030B43136050230022E2540020CA
:100A000070BD436D20221343436550230022C2541E
:100A10000120F5E7124A116880231B040B43136081
:100A20000A20FFF7B7FEDEE7996A2A685203520BE5
:100A3000914399622B685B0304D5094A13680949FD
:100A40000B4013602B689B03D6D5054A13680649F3
:100A50000B401360D0E70220D2E7C046011000002F
:100A600008270140FFFF7FFFFFFFBFFF70B5002891
:100A700011DB8308134DC0339B005C5903221040E7
:100A8000C000FC3216008640B44389010A4082400F
:100A900022435A5170BD0F230340083B9B08063385
:100AA0009B00094A944663445C6803221040C000DE
:100AB000FC3215008540AC4389010A408240224344
:100AC0005A60E7E700E100E000ED00E00138802334
:100AD0005B0498420FD2094A50600948036A1B021E
:100AE0001B0AC02109060B430362002393600733EE
:100AF0001360002070470120FCE7C04610E000E0D2
:100B000000ED00E010B5FFF7B1FF10BD10B5FFF725
:100B1000DDFF10BDF0B5002356E086685F000324BA
:100B2000BC40A643CC68BC403443846044689443D2
:100B30004E683609012232409A402243426053E017
:100B4000DE080836B600375805321A4092000F24E6
:100B50009440A7430C69944022003A43325056E037
:100B6000022600E00026A64034003C4302329200F8
:100B70003F4E94513F4A9768EA433E00AE434C686B
:100B8000E40201D53E002E433A4CA660E7683E00E1
:100B900016404C68A40201D53E002E43354CE66059
:100BA00067683E0016404C68A40301D53E002E4302
:100BB000304C6660266832404C68E40301D52A0058
:100BC00032432C4C226001330C682200DA404DD0B5
:100BD00001229A40250015401442F4D04E680324A7
:100BE0003440013C012C98D94C6803222240032A4E
:100BF00008D0C4685E000322B24094438A68B240C1
:100C00002243C2604C6803222240022A98D0046822
:100C10005E0003221700B740BC434F683A40B24021
:100C2000224302604C68C02292021442CBD0124C84
:100C3000626B0126324362639A08941CA4000C4E36
:100C4000A75903241C40A4000F26A640B743A026A2
:100C5000F605B04286D0094EB04205D0084EB042EB
:100C600000D17DE706267EE701267CE7F0BDC04681
:100C70000000014000040140001002400004005048
:100C800000080050002A01D0816170478162FCE7B2
:100C900010B5264BDA680C231340082B42D00C2BDE
:100CA00011D0042B09D0214B5A68520B0723134053
:100CB000013380200002984010BD1C4B1B68DB06EE
:100CC00032D51B48F8E7910C0F230B401949C85C3B
:100CD000920D03231A40541C144BDB68DB0309D527
:100CE000154A0023002101F057F922000023FFF7E5
:100CF00073FAE1E70D4B1B68DB0609D50C4A0023AC
:100D0000002101F049F922000023FFF765FAD3E73B
:100D10000A4A0023002101F03FF922000023FFF7D7
:100D20005BFAC9E70448C7E70448C5E7001002407A
:100D300000093D00A421000800127A000024F400FC
:100D4000F0B583B0041E00D165E2C54BDA680C250E
:100D50001540DE6880235B021E400368DB0736D542
:100D6000082D2CD00C2D28D063688022520293428B
:100D700055D0A022D202934258D0B94B1A68B94933
:100D80000A401A601A68802149020A400192019AB9
:100D90001A68B5490A401A606368002B52D0FFF701
:100DA000E1FC0700AE4B1B689B0310D4FFF7DAFC95
:100DB000C01B6428F6D903202EE2002ED4D0A84B05
:100DC0001B689B0303D56368002B00D126E22368D0
:100DD0009B076DD5E3689A0605D5A14802682021D6
:100DE0000A4302608B43042D3CD00C2D38D0002BDD
:100DF00000D1B0E09A490A680920824313430B608E
:100E0000FFF7B0FC0600964B1B685B0700D599E026
:100E1000FFF7A8FC801B0228F5D90320FCE1904ACB
:100E2000116880235B020B431360B5E78C4B196894
:100E30008022D2020A431A601968802252020A43B1
:100E40001A60A9E7FFF78EFC0700854B1B689B0320
:100E5000BDD5FFF787FCC01B6428F6D90320DBE172
:100E6000002EC4D17E4A1268520702D5002B00D151
:100E7000D6E17B4E72687D490A40216909020A4326
:100E80007260326809218A4313433360FFF700FF21
:100E9000F26812090F231340754AD35CD840754B92
:100EA0001860754B1868FFF715FC002800D0B3E1F7
:100EB0002368DB062DD5002D60D1694B1B689B058F
:100EC00003D5A369002B00D1ACE1654A53686B4997
:100ED0000B40216A0B43536053681B021B0AE169F4
:100EE00009060B435360216A490B013180231B0221
:100EF0008B40D16809090F220A405D498A5CD340C2
:100F00005C4A13605C4B1868FFF7E4FB002800D0D4
:100F100082E123681B077DD56369002B67D0504AA7
:100F2000136D01210B431365FFF71CFC06004C4BAE
:100F30001B6D9B076ED4FFF715FC801B0228F6D9AA
:100F4000032069E146494B68484A1340226912026E
:100F500013434B60ACE7424A136801218B43136093
:100F6000FFF700FC06003E4B1B685B07A0D5FFF7B0
:100F7000F9FB801B0228F6D903204DE1A369002B61
:100F800022D0374A116880235B000B431360FFF7C0
:100F9000E9FB0600324B1B689B0506D4FFF7E2FB1A
:100FA000801B0228F6D9032036E12D4A53683349C5
:100FB0000B40216A0B43536053681B021B0AE16913
:100FC00009060B435360A4E7254A13682C490B40DC
:100FD0001360FFF7C7FB0600214B1B689B0598D5E4
:100FE000FFF7C0FB801B0228F6D9032014E11C4A3E
:100FF000136D01218B431365FFF7B4FB0600184BFB
:101000001B6D9B0706D5FFF7ADFB801B0228F6D9A9
:10101000032001E123685B0700D48EE0104B9B6B3B
:10102000DB001BD40E4A916B80235B050B4393635B
:101030000126144B1B68DB0528D5A36880225200CB
:10104000934237D0002B4DD1054B1A6D0C490A4005
:101050001A651A6D0C490A401A6531E00026E8E766
:1010600000100240FFFFFEFFFFFFFBFFFFE0FFFF5E
:10107000B82100080000002008000020FF1FFFFF2B
:10108000FFFEFFFF00700040FFFBFFFF6B4A11688F
:1010900080235B000B431360FFF764FB0700674B83
:1010A0001B68DB05C9D4FFF75DFBC01B6428F6D9BC
:1010B0000320B1E0624A116D80235B000B4313658E
:1010C000A368002B28D0FFF74DFB07005C4B1B6D7E
:1010D0009B0530D4FFF746FBC01B5A4B9842F5D90D
:1010E000032099E0A022D200934209D0544B1A6DFC
:1010F00055490A401A651A6D54490A401A65DFE7D6
:101100004F4B196D013AFF3A0A431A65196D802257
:1011100052000A431A65D3E7FFF724FB0700484B48
:101120001B6D9B0507D5FFF71DFBC01B454B984268
:10113000F5D9032070E0012E1AD0636A002B00D18C
:1011400072E00C2D4FD0022B18D03D4A1368404955
:101150000B401360FFF706FB0400394B1B689B0133
:101160003FD5FFF7FFFA001B0228F6D9032053E012
:10117000334A936B37490B409363DEE7304A136879
:1011800033490B401360FFF7EDFA05002C4B1B6849
:101190009B0106D5FFF7E6FA401B0228F6D903208B
:1011A0003AE02749CB682C4A1340A26AE06A02431E
:1011B000206B02431343CB600A6880235B04134314
:1011C0000B60FFF7CFFA04001D4B1B689B0106D490
:1011D000FFF7C8FA001B0228F6D903201CE0002004
:1011E0001AE0002018E0012B20D0154BDA6880238C
:1011F0005B021340A16A8B421AD1F0239B03134078
:10120000E16A8B4216D1C0231B041A40236B9A4219
:1012100012D1002000E0012003B0F0BD0120FBE767
:101220000120F9E70120F7E70020F5E70120F3E7C7
:101230000120F1E70120EFE70120EDE70070004019
:101240000010024088130000FFFEFFFFFFFBFFFFBE
:10125000FFFFFFFEFFFFFFEFFFFF02FF70B505007E
:101260000C00002800D1D1E06A4B1A68012313401A
:101270008B4219D32B689B0706D5674AD368F021A8
:101280008B43A9680B43D3602B68DB077BD56B6866
:10129000022B20D0032B40D0012B44D05E4A126891
:1012A00092051DD4012099E05A4A136801218B430D
:1012B00023431360FFF756FA0600564B1A680123C2
:1012C0001340A342D6D0FFF74DFA801B534A9042F9
:1012D000F3D9032082E0504A1268920300D497E0C9
:1012E0004D49CA68032082431343CB60FFF73AFAA3
:1012F00006006B68022B1CD0032B28D0012B34D0A6
:10130000454BDB680C221A423DD0FFF72BFA801BBD
:10131000424B9842F4D9032060E03F4A12689201A0
:10132000DED401205AE03C4A12685207D8D401208A
:1013300054E0394BDA680C231340082B23D0FFF715
:1013400011FA801B354A9042F3D9032046E0324B14
:10135000DA680C2313400C2B15D0FFF703FA801B1F
:101360002E4B9842F3D9032038E02B4BDA680C233C
:101370001340042B07D0FFF7F5F9801B274B984249
:10138000F3D903202AE0234B1A6801231340A34218
:1013900025D82B685B0706D51F4AD36820490B4028
:1013A000E9680B43D3602B681B0707D51A49CB6844
:1013B0001C4A13402A69D2001343CB60FFF768FC34
:1013C000154BDA6812090F231340174AD35CD84033
:1013D000164B1860164B1868FFF77CF970BD0D4A64
:1013E000136801218B4323431360FFF7BBF9060009
:1013F000084B1A6801231340A342CAD0FFF7B2F981
:10140000801B064B9842F3D90320E7E70120E5E76C
:101410000120E3E700200240001002408813000092
:10142000FFF8FFFFFFC7FFFFB82100080000002002
:1014300008000020014B18687047C04600000020DB
:1014400010B5FFF7F7FF044BDA68120A07231340C1
:10145000024AD35CD84010BD00100240B021000801
:1014600010B5FFF7E7FF044BDA68D20A07231340F1
:10147000024AD35CD84010BD00100240B0210008E1
:1014800070B5040003689B064ED55B4B9B6BDB007D
:1014900074D4594A916B80235B050B4393630126F7
:1014A000564B1B68DB056BD5534B1B68626853407A
:1014B000C02189030B4205D0C0239B0211001940B3
:1014C000994271D04C4B196DC0239B020800184003
:1014D000194215D01A40824212D023689B060FD5BC
:1014E000454B1A6D464911401D6D8020000328436D
:1014F0001865186D434D284018651965D20559D4F3
:1015000023689B060ED56368C02292021900114021
:1015100091425ED038490B6D6268C0208002024063
:1015200013430B65012E5ED023689B0706D5324A14
:10153000D36C0C218B43A1680B43D36423685B07F6
:1015400006D52D4AD36C30490B40E1680B43D36478
:1015500023681B0706D5284AD36C2C490B40216908
:101560000B43D36423681B0643D5234AD36C284915
:101570000B4061690B43D36400203BE000268FE7FA
:101580001E4A116880235B000B431360FFF7EAF8E3
:1015900005001A4B1B68DB0586D4FFF7E3F8401BF8
:1015A0006428F6D9032025E0134B1B689B0389D5DB
:1015B00001201FE0FFF7D6F805000F4B1B6D9B05C0
:1015C0009ED4FFF7CFF8401B124B9842F5D9032069
:1015D00010E009490A6810480240C0208003034017
:1015E00013430B6096E7044A936B0C490B409363DB
:1015F0009AE7002070BDC046001002400070004015
:10160000FFFFFCFFFFFFF7FFFFF3FFFFFFCFFFFF31
:10161000FFFFF3FF88130000FFFFCFFFFFFFFFEF87
:1016200070B5041E59D0436A002B07D142680533B8
:10163000FF339A4205D00023C36102E00023036117
:1016400043610023A3625133E35C002B3ED051225F
:101650000221A154206803684025AB4303606368FE
:10166000822040000340A06884252D0228400343C7
:10167000E06880252D0128400343206901400B4389
:101680006169012001400B43A1698025AD0029401B
:101690000B43E569382129400B43256A8021294005
:1016A0000B43A16A8025AD01294025680B432B60BF
:1016B000618B04230B40656A1021294025680B4388
:1016C0006B6000236365A054002070BD503300227E
:1016D000E2542000FEF71AFFB9E70120F5E7000009
:1016E00003688022D205904202D00F4A904203D173
:1016F000702293434A6813438022D205904202D05D
:10170000094A904203D1094A1340CA681343802210
:1017100093430A69134303608B68C3620B68836257
:10172000012343617047C04600080140FFFCFFFFF2
:1017300030B5036A046A0125AC4304628469EF355D
:10174000AC43120122430A24A3430B438261036288
:1017500030BD000030B5036A1024A34303628469DE
:10176000036A054D2C4012032243A024A343090120
:1017700019438261016230BDFF0FFFFF8368702251
:1017800093430B43693A13438360704730B58468D1
:10179000034D2C401B0213430B432343836030BD96
:1017A000FF00FFFF70B5041E1ED03923C35C002B61
:1017B00014D0392502236355210001C9FFF790FF9A
:1017C00001233E22A354043AA3540132A35401320C
:1017D000A3540132A3546355002070BD3833002256
:1017E000C254FEF713FFE4E70120F6E710B504004A
:1017F00008003823E35C012B00D177E03823012275
:10180000E25401330132E2542268936838490B40B4
:101810009360016860294FD029D8402957D00CD94E
:10182000502922D14168C2682068FFF781FF2068F3
:101830005021FFF7A3FF002005E020290ED009D991
:1018400030290BD0012039230122E254013B002230
:10185000E25410BD002901D0102904D12068FFF7FF
:101860008DFF0020EFE70120EDE70120EBE780226C
:101870005201914236D08022920191420DD181686D
:101880004268C3682068FFF781FF2268916880235F
:10189000DB010B4393600020D5E7702924D18168D8
:1018A0004268C3682068FFF771FF22689368772158
:1018B0000B4393600020C6E74168C2682068FFF7C9
:1018C00049FF20686021FFF759FF0020BBE741680E
:1018D000C2682068FFF72CFF20684021FFF74EFF09
:1018E0000020B0E70020AEE70120ACE70220B0E71F
:1018F0008800FFFF30B53823C35C012B22D038238A
:101900000122C25401330132C25403685C689D68ED
:101910006E3294430A6822435A6003688022D205DB
:10192000934202D0084A934204D1802295434A68E8
:101930002A439A6039230122C254013B0022C25437
:10194000002030BD0220FCE70008014010B5EFF395
:10195000108C012282F3108801680B68124C23401E
:101960000B608CF31088EFF3108C82F31088016801
:101970008B6893438B608CF31088036E012B06D029
:1019800080232022C25000230366836610BDEFF33C
:10199000108183F31088026813683234FF34A34344
:1019A000136081F31088EBE7DFFEFFFFD0B5040082
:1019B000016883680269134342691343C269134390
:1019C0000A688448024013430B60226853688249C6
:1019D0000B40E1680B435360A16922687F4B9A4238
:1019E00001D0236A194393687D4803400B439360F9
:1019F00022687C4B9A4212D0784B9A4220D0102316
:101A000076498A4242D0E06980221202904279D01F
:101A1000082B00D9D8E09B00734AD3589F46734BDC
:101A2000D96C0C230B40082B22D005D8002B21D0D9
:101A3000042BE5D01023E3E70C2B1DD1043BDFE79B
:101A40006A4BDB6CC02109010B40802109018B42EC
:101A500014D007D8002B13D08021C9008B4211D19C
:101A60000423CDE7C02109018B420DD10823C7E72C
:101A70000223C5E70023C3E71023C1E70223BFE722
:101A80000023BDE71023BBE71023B9E7042B34D0B4
:101A90000BD8002B2BD0022B05D1544B1B68DB0637
:101AA0002ED4534805E001206DE0082B1DD1802085
:101AB0000002626853009B18834200D978E0130348
:101AC000834200D276E0070E0602500800218019FA
:101AD00079410023FEF780FB464BC218464B9A42E1
:101AE0006AD82368D86000204DE001204BE0FFF762
:101AF000A7FC0028DDD1002045E0FFF7C9F8F8E792
:101B00003E48D6E7082B59D89B003D4AD3589F46FC
:101B1000FFF796FC002853D0400061684B08C018BE
:101B2000FEF7CEFA0200103A364B9A424AD882B2F9
:101B30000F239A434008083B034013432268D360B5
:101B4000002020E0FFF78CFCE4E7284B1B68DB0655
:101B500004D42748E0E7FFF79BF8DBE72748DBE7FB
:101B6000FFF76EFC002831D061684B081818FEF7AB
:101B7000A7FA0200103A234B9A4229D8236800049E
:101B8000000CD86000200023A366E366D0BDFFF7F9
:101B900067FCE7E7154B1B68DB0607D41448E3E74F
:101BA000FFF776F8DEE780200002DDE71348DBE789
:101BB0000120E8E70120E6E70120E4E70120E2E771
:101BC0000020E0E70120DEE70120DCE70020DAE783
:101BD0000120D8E7F369FFEFFFCFFFFF0048004087
:101BE000FFF4FFFF00440040C8210008001002403D
:101BF0000024F40000FDFFFFFFFC0F0000093D0082
:101C0000EC210008EFFF0000436ADB0706D50268FD
:101C100053682C490B40816A0B435360436A9B070E
:101C200006D50268536828490B40C16A0B435360CC
:101C3000436A5B0706D50268536824490B40016B71
:101C40000B435360436A1B0706D50268536820495B
:101C50000B40416B0B435360436ADB0606D50268B9
:101C600093681C490B40816B0B439360436A9B064E
:101C700006D50268936818490B40C16B0B4393600B
:101C8000436A5B060BD50268536814490B40016C2C
:101C90000B435360026C80235B039A420AD0436A71
:101CA0001B0606D5026853680D490B40816C0B4337
:101CB00053607047026853680A490B40416C0B43FC
:101CC0005360ECE7FFFFFDFFFFFFFEFFFFFFFBFFA1
:101CD000FF7FFFFFFFEFFFFFFFDFFFFFFFFFEFFFD4
:101CE000FFFFF7FFFFFF9FFFF8B5CE46474680B5E1
:101CF00006000D0017009946089B98463368DC697A
:101D00002C40641B63425C41BC422FD143460133EB
:101D1000F4D0FEF727FD4B46C01A40452BD843466A
:101D2000002B2AD033681A685207E7D5DA69120700
:101D300010D4DA691205E1D5802212011A6230004E
:101D4000FFF704FE84232022F2500C3B0022F254C1
:101D500003200CE008241C623000FFF7F7FD842309
:101D6000F4500C3B0022F254012000E00020C0BCE3
:101D7000B946B046F8BD0320F9E70320F7E70000B5
:101D800030B583B0040084230022C250FEF7EAFC81
:101D9000050023681B681B070FD423681B685B07BB
:101DA00029D42023E3678022A3500023236663669F
:101DB000083AA354002003B030BD8021224B009389
:101DC0000300002289032000FFF78EFF0028E4D0E3
:101DD000EFF31081012383F31088226813688020B9
:101DE0008343136081F310882023E3675833002274
:101DF000E2547D38DFE78021134B00932B00002253
:101E0000C9032000FFF770FF0028CAD0EFF310804D
:101E1000012282F3108821680B680C4D2B400B6067
:101E200080F31088EFF3108082F3108821688B68AC
:101E300093438B6080F3108880231F32E250083B6D
:101E40000022E2540320B6E7FFFFFF01DFFEFFFFA1
:101E500010B5041E2ED0C36F002B21D02423E367BE
:101E60002268136801218B4313602000FFF79EFD59
:101E7000012814D0636A002B18D1226853680E49D8
:101E80000B405360226893682A218B439360226839
:101E9000136829390B4313602000FFF771FF10BD51
:101EA00078330022C254FEF7DDFBD7E72000FFF7AE
:101EB000ABFEE2E70120F2E7FFB7FFFF13488546DC
:101EC000FEF766FB12480168090E124A914205D1DD
:101ED0001148124901601248124901601248134921
:101EE000134A002302E0D458C4500433C4188C426F
:101EF000F9D3104A104C002301E013600432A242CF
:101F0000FBD300F025F8FEF7B9FAFEE70008002041
:101F1000040000001F000000341002400100000017
:101F20000000014000000000000000200C00002024
:101F3000202200080C000020A8010020FEE703007A
:101F40008218934200D1704719700133F9E70000FD
:101F500070B500260C4C0D4D641BA410A64209D18F
:101F6000002600F013F90A4C0A4D641BA410A64287
:101F700005D170BDB300EB5898470136EEE7B300CA
:101F8000EB5898470136F2E718220008182200089B
:101F90001C22000818220008F0B5CE469946030C12
:101FA0009C46130447461B0C1D000E0061460404AA
:101FB000240C80B50700100C4B436543414360433C
:101FC0002C0CC01824188C46A34203D980235B0232
:101FD0009846C444494679435643230C2D042D0C9E
:101FE0008919634424046019C918C0BCB946B046B5
:101FF000F0BDC046F0B557464E464546DE46E0B514
:1020000004000D009246994683B08B4230D82DD003
:1020100049465046FEF700F9290006002000FEF769
:10202000FBF8331A9846203B34D49B4653465A4615
:10203000934042461F00534693401E00AF423BD898
:10204000AF4200D179E05B46A41BBD41002B00DA12
:1020500076E0002200230092019301235A46934028
:102060000193012342469340009329E08242CFD955
:1020700000220023009201930C9B002B01D01C60D6
:102080005D600098019903B0F0BCBB46B246A9461A
:10209000A046F0BD42469B4620239B1A5246DA409A
:1020A000414613004A468A40170042461F435346A2
:1020B00093401E00AF42C3D9002200230092019337
:1020C0004346002BD8D0FB0772081A4346467B08CC
:1020D0000EE0AB4201D1A2420CD8A41A9D410120CE
:1020E00024196D410021013E24184D41002E06D0D7
:1020F000AB42EED9013E24196D41002EF8D1009873
:1021000001995B4600196941002B24DB2B005A46DC
:102110004446D3402A00E2401C005B461500002BD9
:102120002ADB26009E40330026004746BE40320090
:10213000801A9941009001919EE7A342BCD882E7A2
:102140004246202300219B1A002200910192012285
:10215000DA40019285E7424620239B1A2A00464630
:102160009A402300F340444613432A00E2401C00F7
:102170005B461500002BD4DA42462F0020232600B0
:1021800097409B1ADE403B003343CDE7F8B5C0468D
:10219000F8BC08BC9E467047F8B5C046F8BC08BC01
:0421A0009E467047A0
:1021A400030406080C101820300000000000000092
:1021B4000102030400000000000000000102030407
:1021C40006070809601B00088E1B0008941B000802
:1021D400C81B0008A01B0008C81B0008C81B000877
:1021E400C81B0008A61B0008101B0008441B00089D
:1021F4004A1B0008BC1B0008561B0008BC1B000837
:0C220400BC1B0008BC1B0008181B0008D5
:08221000E4FDFF7F0100000066
:042218009502000823
:04221C006D02000847
:0C2220000000200001000000040000008D
:0400000508001EBD14
:00000001FF
